:100000000C9472000C94CB010C94CB010C94CB019A
:100010000C94CB010C94CB010C94CB010C94CB0130
:100020000C94CB010C94CB010C94CB010C94CB0120
:100030000C94CB010C94CB010C94CB010C94CB0110
:100040000C94CB010C94CB010C94CB010C94CB0100
:100050000C9480010C94CB010C94CB010C94CB013B
:100060000C94CB010C94CB010C94CB010C94CB01E0
:100070000C94CB010C94CB010C94CB010C94CB01D0
:100080000C94CB010C94CB010C94CB010C94CB01C0
:100090000C94CB010C94CB010C94CB010C94CB01B0
:1000A0000C94CB010C94CB010C94CB010C94CB01A0
:1000B0000C94CB010C94CB010C94CB010C94CB0190
:1000C0000C94CB010C94CB010C94CB010C94CB0180
:1000D0000C94CB010C94CB010C94CB010C94CB0170
:1000E0000C94CB0111241FBECFEFD1E2DEBFCDBFF8
:1000F00000E00CBFE4EEF0E040E019C0B791A7913A
:1001000037912791079107FD0EC097918791EF01D5
:10011000F92FE82F0BBF07900D92A217B307D9F75D
:10012000FE011BBE04C01D92A217B307E1F7E43E17
:10013000F40721F70E9435010C94B801F894FFCF21
:090140004C434420546573740023
:10014A00CF93C82F85B1816085B985B18F7085B984
:10015A0085B19C2F907F892B85B985B1826085B93D
:10016A0081E090E00E949A0185B18D7F85B985B1C1
:10017A008F7085B925B130E1C39FC0011124822B4C
:10018A0085B985B1826085B981E090E00E949A01C3
:10019A0085B18D7F85B982E090E00E949A01CF9166
:0201AA000895B6
:1001AC00CF93C82F85B18E7F85B985B18F7085B9F6
:1001BC0085B19C2F907F892B85B985B1826085B9DB
:1001CC0081E090E00E949A0185B18D7F85B985B15F
:1001DC008F7085B925B130E1C39FC0011124822BEA
:1001EC0085B985B1826085B981E090E00E949A0161
:1001FC0085B18D7F85B982E090E00E949A01CF9104
:02020C00089553
:10020E0084B1836F84B984EF91E00E949A0183E0F8
:10021E000E94D60085E090E00E949A0183E00E9441
:10022E00D60081E090E00E949A0183E00E94D60001
:10023E0081E090E00E949A0182E00E94D60088E25E
:10024E000E94D6008CE00E94D60086E00E94D60066
:0C025E000E94C30180E80E94D6000895B1
:10026A00CF93DF93CDB7DEB729970FB6F894DEBFE9
:10027A000FBECDBF0E94070120E431E040E089E0D3
:10028A00F901DE011196742F0E94AA01BE016F5F67
:10029A007F4F81E00E94620188EE93E00E949A01FA
:1002AA00BE016F5F7F4F82E00E94620188EE93E099
:0A02BA000E949A010E94C301FFCFC9
:1002C4000F931F93CF938B01813021F480E80E9418
:1002D400D60005C0823019F480EC0E94D600C0E03C
:1002E40003C00E94A500CF5FF801EC0FF11D8081CF
:0C02F4008111F7CFCF911F910F91089559
:100300001F920F920FB60F9211248F939F938AEE34
:100310009BEC909385008093840095B180E28927BF
:1003200085B981E086BB9F918F910F900FBE0F9092
:040330001F9018956D
:10033400FC0190E001C09F5F292F30E068E26E9FCE
:10034400A0016F9F500D112424173507A0F30895C1
:10035400992777FD06C07BBF07900D920197E1F7BF
:0C036400089501900D920197E1F70895B3
:10037000EC010E94D0010E94CF01CE010E94D10168
:06038000CE010E94CD0138
:1003860081E00E94D60082E090E00E949A010895E2
:040396000C940000C3
:04039A000E949E001F
:02039E000895C0
:0203A0000895BE
:0203A2000895BC
:00000001FF
