:100000000C9472000C94D5000C94D5000C94D5007F
:100010000C94D5000C94D5000C94D5000C94D5000C
:100020000C94D5000C94D5000C94D5000C94D500FC
:100030000C94D5000C94D5000C94D5000C94D500EC
:100040000C94D5000C94D5000C94D5000C94D500DC
:100050000C94A0000C94D5000C94D5000C94D50001
:100060000C94D5000C94D5000C94D5000C94D500BC
:100070000C94D5000C94D5000C94D5000C94D500AC
:100080000C94D5000C94D5000C94D5000C94D5009C
:100090000C94D5000C94D5000C94D5000C94D5008C
:1000A0000C94D5000C94D5000C94D5000C94D5007C
:1000B0000C94D5000C94D5000C94D5000C94D5006C
:1000C0000C94D5000C94D5000C94D5000C94D5005C
:1000D0000C94D5000C94D5000C94D5000C94D5004C
:1000E0000C94D50011241FBECFEFD1E2DEBFCDBFEF
:1000F00000E00CBFE4EEF0E040E019C0B791A7913A
:1001000037912791079107FD0EC097918791EF01D5
:10011000F92FE82F0BBF07900D92A217B307D9F75D
:10012000FE011BBE04C01D92A217B307E1F7E43E17
:10013000F40721F70E94D1000C94C600F894FFCF79
:100140001F920F920FB60F9211248F939F938AEEF6
:100150009BEC909385008093840095B180E2892781
:1001600085B981E086BB9F918F910F900FBE0F9054
:040170001F9018952F
:100174001092C5008FEC8093C40088E18093C10085
:0801840086E08093C20008959B
:10018C00EC010E94DA000E94D900CE010E94DB0033
:06019C00CE010E94D70015
:0801A2000E94BA007894FFCF1F
:0401AA000C940000B1
:0401AE000E949E000D
:0201B2000895AE
:0201B4000895AC
:0201B6000895AA
:00000001FF
