:100000000C9476000C9413030C9413030C941303B8
:100010000C9413030C9413030C9413030C94130308
:100020000C9413030C9413030C9413030C941303F8
:100030000C9413030C9413030C9413030C941303E8
:100040000C9413030C9413030C9413030C941303D8
:100050000C9413030C9413030C9413030C941303C8
:100060000C9413030C9413030C9413030C941303B8
:100070000C9413030C9413030C9413030C941303A8
:100080000C9413030C9413030C9413030C94130398
:100090000C9413030C9413030C9413030C94130388
:1000A0000C9413030C9413030C9413030C94130378
:1000B0000C9413030C9413030C9413030C94130368
:1000C0000C9413030C9413030C9413030C94130358
:1000D0000C9413030C9413030C9413030C94130348
:1000E0000C941303020002100006340011241FBEFA
:1000F000CFEFD1E2DEBFCDBF00E00CBFE4EEF0E019
:1001000040E019C0B791A79137912791079107FD5A
:100110000EC097918791EF01F92FE82F0BBF079041
:100120000D92A217B307D9F7FE011BBE04C01D92A2
:10013000A217B307E1F7EB3EF40721F70E94350160
:080140000C94E802F894FFCFD3
:1001480056656E44454C4554004661697320746F8A
:100158006E2063686F697800426F61200042757491
:0F016800746F6E203100427574746F6E20320018
:100178006F927F929F92AF92CF92DF92EF92FF920F
:100188000F931F93CF93DF93CDB7DEB760970FB66A
:10019800F894DEBF0FBECDBF80E1E0E0F2E0DE0103
:1001A800119601900D928A95E1F7A12C42C082B177
:1001B800EA2CF12C97012C5F3F4F01E010E0380149
:1001C80002C0660C771C2A95E2F7962C962D90951E
:1001D800892382B910E026C080B1C12ED12C90E0CD
:1001E800012E02C0959587950A94E2F780FD19C003
:1001F80064E06A0D812F0E946E02882391F082B11B
:10020800982A92B8CC0CDD1CCC0CDD1C81E090E067
:100218008C0F9D1FC80ED91EF601EE0DFF1D8081A3
:100228000DC01F5F1430C0F282B1082F062902B931
:10023800A39493E09A1508F0BACF80E060960FB6C1
:10024800F894DEBF0FBECDBFDF91CF911F910F9104
:10025800FF90EF90DF90CF90AF909F907F906F903E
:020268000895F7
:10026A000E94270248E451E060E081E00E948C028B
:10027A0041E551E060E082E00E948C020E94D002D7
:10028A0060E875E280E090E00E94BB020E94DD0215
:10029A000E94BC00C82F8823B9F00E94F30240E6EE
:1002AA0051E060E081E00E948C028C2F0E94940150
:1002BA008C2F0E94FD022FEF85EA9EE0215080409C
:1002CA009040E1F700C000000E940B03882389F0E8
:1002DA000E94F30245E651E060E081E00E948C0250
:1002EA002FEF85EA9EE0215080409040E1F700C060
:1002FA0000000E940F03882359F20E94F3024EE67F
:10030A0051E060E081E00E948C022FEF85EA9EE0D6
:0E031A00215080409040E1F700C00000B9CFB4
:1003280095B19F70282F207F922B95B995B1916038
:1003380095B995B1926095B935E03A95F1F7000015
:1003480095B19D7F95B9EFE1F3E03197F1F700C0E2
:10035800000025B1F0E18F9FC0011124922F9F70FA
:10036800892B85B985B1816085B985B1826085B9E8
:1003780035E03A95F1F7000085B18D7F85B98FE3B7
:0C0388009FE10197F1F700C0000008950C
:1003940095B19F70282F207F922B95B995B19E7FA0
:1003A40095B995B1926095B935E03A95F1F70000A9
:1003B40095B19D7F95B9EFE1F3E03197F1F700C076
:1003C400000025B1F0E18F9FC0011124922F9F708E
:1003D400892B85B985B1826085B935E03A95F1F705
:1003E400000085B18D7F85B98FE39FE10197F1F717
:0603F40000C000000895A6
:1003FA00E82F81E070E060E022C08FE39CE901977A
:10040A00F1F700C000009091000121E030E0A9015D
:10041A000E2E02C0440F551F0A94E2F7292F30E02E
:10042A00242335230E2E02C0359527950A94E2F728
:10043A00822F721302C06F5F01C060E0722F6730B3
:04044A00E0F208953F
:10044E0084B1836F84B92FEF80E792E02150804012
:10045E009040E1F700C0000083E30E94CA0182E3EE
:10046E000E94CA0188E20E94CA018CE00E94CA0161
:10047E0086E00E94CA0181E00E94CA018FE39FE1DB
:0A048E000197F1F700C00000089587
:10049800A1E21A2EAA1BBB1BFD010DC0AA1FBB1F80
:1004A800EE1FFF1FA217B307E407F50720F0A21BF2
:1004B800B30BE40BF50B661F771F881F991F1A945F
:1004C80069F760957095809590959B01AC01BD0189
:0404D800CF010895B3
:1004DC00582F81E040E090E016C0EFE3FCE9319743
:1004EC00F1F700C0000080B121E030E0052E02C021
:1004FC00220F331F0A94E2F78223481302C09F5F36
:0C050C0001C090E0482F973040F30895A4
:10051800CF92DF92EF926A01E62E813021F480E8D3
:100528000E94CA0105C0823019F480EC0E94CA01F9
:100538008E2DB6010E94A402EF90DF90CF9008950F
:10054800CF92DF92EF926B01E82E07C08FEFC81AA7
:10055800D80AE80A862F0E949401F6015E2D0E94AF
:0E05680004036111F3CFEF90DF90CF90089560
:100576009B01AC0160E472E48FE090E00E944C02C3
:10058600215031093093C5002093C40088E180933F
:0A059600C10086E08093C2000895C2
:1005A00081B1806F81B982B18F7082B981B1807F52
:0A05B00081B982B18F6082B908950D
:1005BA00E1E0F1E080818F798083E2E0F1E08081FF
:0605CA008F798083089583
:1005D000EC010E9418030E941703CE010E94190328
:0605E000CE010E9415038C
:1005E60081E00E94CA018FE39FE10197F1F700C005
:0405F6000000089564
:0E05FA009091C00095FFFCCF8093C60008953D
:0E06080057FD03C05BBF6791089560810895A0
:0806160085E00E94FD0108953A
:08061E0086E00E94FD01089531
:040626000C94000030
:04062A000E94A20088
:02062E0008952D
:0206300008952B
:02063200089529
:100634003132334134353642373839432A30234452
:00000001FF
