:100000000C9476000C94AA030C94AA030C94AA03F3
:100010000C94AA030C94AA030C94AA030C94AA03AC
:100020000C94AA030C94AA030C94AA030C94AA039C
:100030000C94AA030C94AA030C94AA030C94AA038C
:100040000C94AA030C94AA030C94AA030C94AA037C
:100050000C94AA030C94AA030C94AA030C94AA036C
:100060000C94AA030C94AA030C94AA030C94AA035C
:100070000C94AA030C94AA030C94AA030C94AA034C
:100080000C94AA030C94AA030C94AA030C94AA033C
:100090000C94AA030C94AA030C94AA030C94AA032C
:1000A0000C94AA030C94AA030C94AA030C94AA031C
:1000B0000C94AA030C94AA030C94AA030C94AA030C
:1000C0000C94AA030C94AA030C94AA030C94AA03FC
:1000D0000C94AA030C94AA030C94AA030C94AA03EC
:1000E0000C94AA03020002100007620011241FBE34
:1000F000CFEFD1E2DEBFCDBF00E00CBFE4EEF0E019
:1001000040E019C0B791A79137912791079107FD5A
:100110000EC097918791EF01F92FE82F0BBF079041
:100120000D92A217B307D9F7FE011BBE04C01D92A2
:10013000A217B307E1F7EB3EF40721F70E944A014B
:080140000C947E03F894FFCF3C
:10014800427574746F6E2035306300427574746F35
:100158006E2031520053656C6563696F6E65206F60
:100168002050726F6475746F3A004E756D65726FCA
:100178003A200056656E44454C4554004469676909
:100188007465206F2050726F6475746F00506F72C1
:0A0198007461204162657274610019
:1001A2006F927F929F92AF92CF92DF92EF92FF92E5
:1001B2000F931F93CF93DF93CDB7DEB760970FB640
:1001C200F894DEBF0FBECDBF80E1E0E0F2E0DE01D9
:1001D200119601900D928A95E1F7A12C42C082B14D
:1001E200EA2CF12C97012C5F3F4F01E010E038011F
:1001F20002C0660C771C2A95E2F7962C962D9095F4
:10020200892382B910E026C080B1C12ED12C90E0A2
:10021200012E02C0959587950A94E2F780FD19C0D8
:1002220064E06A0D812F0E94C302882391F082B19B
:10023200982A92B8CC0CDD1CCC0CDD1C81E090E03D
:100242008C0F9D1FC80ED91EF601EE0DFF1D808179
:100252000DC01F5F1430C0F282B1082F062902B907
:10026200A39493E09A1508F0BACF80E060960FB697
:10027200F894DEBF0FBECDBFDF91CF911F910F91DA
:10028200FF90EF90DF90CF90AF909F907F906F9014
:020292000895CD
:100294000E947C020E945B0360E875E280E090E0CB
:1002A4000E9426030E9468030E9473030E941003A5
:1002B4000E9489034BE751E060E081E00E94E10283
:1002C40044E851E060E082E00E94E1020E9493036E
:1002D40002C00E9421020E944E038823D1F30AC067
:1002E4000E944F020E94890345E951E060E081E0E9
:0E02F4000E94E1020E944E038111F2CFE7CF7B
:100302000F931F93CF93DF9320ED280F223088F0B5
:1003120000E3982F26C00E94D100982F2FEF30E7DC
:1003220082E0215030408040E1F700C00000E296B8
:1003320003C0182FC0E0D0E0292F911104C0C43CA3
:1003420039E0D30740F3C43C89E0D80728F02111F3
:1003520003C0912F00E305C0C53CD94010F4211120
:0E036200012F802FDF91CF911F910F910895F1
:1003700095B19F70282F207F922B95B995B19160F0
:1003800095B995B1926095B935E03A95F1F70000CD
:1003900095B19D7F95B9EFE1F3E03197F1F700C09A
:1003A000000025B1F0E18F9FC0011124922F9F70B2
:1003B000892B85B985B1816085B985B1826085B9A0
:1003C00035E03A95F1F7000085B18D7F85B98FE36F
:0C03D0009FE10197F1F700C000000895C4
:1003DC0095B19F70282F207F922B95B995B19E7F58
:1003EC0095B995B1926095B935E03A95F1F7000061
:1003FC0095B19D7F95B9EFE1F3E03197F1F700C02E
:10040C00000025B1F0E18F9FC0011124922F9F7045
:10041C00892B85B985B1826085B935E03A95F1F7BC
:10042C00000085B18D7F85B98FE39FE10197F1F7CE
:06043C0000C0000008955D
:10044200CF93DF930E94D100C82F882321F10E940D
:1004520089034DE551E060E081E00E94E10242E75C
:1004620051E060E082E00E94E1028C2F0E94810153
:10047200D82FC92F0E943B038D2F0E94B8018C2FC9
:100482000E94B8012FEF83ED90E32150804090400D
:0C049200E1F700C00000DF91CF91089559
:10049E00E0E9F0E080818062808320E030E01FC0E0
:1004AE004FEF84E39CE0415080409040E1F700C064
:1004BE000000E0E9F0E080818F7D80838EB18F7E39
:1004CE008EB94FEF84E39CE0415080409040E1F7BD
:1004DE0000C000008081806280832F5F3F4F2A30F2
:0A04EE003105F4F20E949303089513
:1004F80084B1836F84B92FEF80E792E02150804068
:100508009040E1F700C0000083E30E94EE0182E31F
:100518000E94EE0188E20E94EE018CE00E94EE014A
:1005280086E00E94EE0181E00E94EE018FE39FE1E8
:0A0538000197F1F700C000000895DC
:10054200A1E21A2EAA1BBB1BFD010DC0AA1FBB1FD5
:10055200EE1FFF1FA217B307E407F50720F0A21B47
:10056200B30BE40BF50B661F771F881F991F1A94B4
:1005720069F760957095809590959B01AC01BD01DE
:04058200CF01089508
:10058600582F81E040E090E016C0EFE3FCE9319798
:10059600F1F700C0000080B121E030E0052E02C076
:1005A600220F331F0A94E2F78223481302C09F5F8B
:0C05B60001C090E0482F973040F30895FA
:1005C200CF92DF92EF926A01E62E813021F480E829
:1005D2000E94EE0105C0823019F480EC0E94EE0107
:1005E2008E2DB6010E94F902EF90DF90CF90089510
:1005F200CF92DF92EF926B01E82E07C08FEFC81AFD
:10060200D80AE80A862F0E94B801F6015E2D0E94E0
:0E061200A3036111F3CFEF90DF90CF90089516
:100620008DB180618DB9E0E9F0E0808181628083E5
:10063000E1E9F0E080818A60808380E890E0909337
:0C0640009B0080939A000E949303089591
:10064C009B01AC0160E472E48FE090E00E94A10297
:10065C00215031093093C5002093C40088E1809368
:0A066C00C10086E08093C2000895EB
:10067600CF93DF93D82FC92F86E50E949C0380E590
:100686000E949C038D2F0E949C038C2F0E949C032A
:06069600DF91CF910895F1
:10069C0080910001807190E095958795959587954F
:0A06AC00959587959595879508951B
:1006B60081B1806F81B982B18F7082B981B1807F3B
:0A06C60081B982B18F6082B90895F6
:1006D000E1E0F1E080818F798083E2E0F1E08081E8
:0606E0008F79808308956C
:1006E600E1E0F1E080818F7E8083E2E0F1E08081CD
:0606F6008F7E8083089551
:1006FC00EC010E94AF030E94AE03CE010E94B00336
:06070C00CE010E94AC03C7
:1007120081E00E94EE018FE39FE10197F1F700C0B3
:040722000000089536
:10072600E0E9F0E080818F7D80838EB18F7E8EB987
:02073600089524
:0E0738009091C00095FFFCCF8093C6000895FD
:0E07460057FD03C05BBF679108956081089561
:040754000C94000001
:040758000E94A20059
:02075C000895FE
:02075E000895FC
:020760000895FA
:100762003132334134353642373839432A30234423
:00000001FF
