:100000000C9476000C94B7030C94B7030C94B703CC
:100010000C94B7030C94B7030C94B7030C94B70378
:100020000C94B7030C94B7030C94B7030C94B70368
:100030000C94B7030C94B7030C94B7030C94B70358
:100040000C94B7030C94B7030C94B7030C94B70348
:100050000C94B7030C94B7030C94B7030C94B70338
:100060000C94B7030C94B7030C94B7030C94B70328
:100070000C94B7030C94B7030C94B7030C94B70318
:100080000C94B7030C94B7030C94B7030C94B70308
:100090000C94B7030C94B7030C94B7030C94B703F8
:1000A0000C94B7030C94B7030C94B7030C94B703E8
:1000B0000C94B7030C94B7030C94B7030C94B703D8
:1000C0000C94B7030C94B7030C94B7030C94B703C8
:1000D0000C94B7030C94B7030C94B7030C94B703B8
:1000E0000C94B7030200021000077C0011241FBE0D
:1000F000CFEFD1E2DEBFCDBF00E00CBFE4EEF0E019
:1001000040E019C0B791A79137912791079107FD5A
:100110000EC097918791EF01F92FE82F0BBF079041
:100120000D92A217B307D9F7FE011BBE04C01D92A2
:10013000A217B307E1F7EB3EF40721F70E949901FC
:080140000C948C03F894FFCF2E
:10014800427574746F6E203100427574746F6E203E
:10015800320053656C6563696F6E65206F2050725D
:100168006F6475746F3A004E756D65726F3A200052
:1001780056656E44454C455400446967697465206A
:100188006F2050726F6475746F00506F72746120C5
:070198004162657274610011
:1001A0006F927F929F92AF92CF92DF92EF92FF92E7
:1001B0000F931F93CF93DF93CDB7DEB760970FB642
:1001C000F894DEBF0FBECDBF80E1E0E0F2E0DE01DB
:1001D000119601900D928A95E1F7A12C42C082B14F
:1001E000EA2CF12C97012C5F3F4F01E010E0380121
:1001F00002C0660C771C2A95E2F7962C962D9095F6
:10020000892382B910E026C080B1C12ED12C90E0A4
:10021000012E02C0959587950A94E2F780FD19C0DA
:1002200064E06A0D812F0E94FA02882391F082B166
:10023000982A92B8CC0CDD1CCC0CDD1C81E090E03F
:100240008C0F9D1FC80ED91EF601EE0DFF1D80817B
:100250000DC01F5F1430C0F282B1082F062902B909
:10026000A39493E09A1508F0BACF80E060960FB699
:10027000F894DEBF0FBECDBFDF91CF911F910F91DC
:10028000FF90EF90DF90CF90AF909F907F906F9016
:020290000895CF
:100292000F931F93CF93DF93082F86E50E94A1034C
:1002A20080E50E94A103013351F50EC00E94D000E7
:1002B200182F2FEF80E792E0215080409040E1F725
:1002C20000C00000E29603C0C0E0D0E010E01111CF
:1002D20004C0C43C29E0D20748F38FEC810F83307D
:1002E20038F4802F0E94A103812F0E94A1031BC01A
:1002F20080E30E94A10381E30E94A10314C08EEC5B
:10030200800F823030F0073321F0083311F00933C7
:1003120039F480E30E94A103802F0E94A10303C04D
:1003220085E40E94A103DF91CF911F910F9108955F
:100332000E94B3020E94690360E875E280E090E0E7
:100342000E9447030E9476030E94810312C00E940A
:10035200970348E751E060E081E00E94180341E81A
:1003620051E060E082E00E9418030E948E020E9427
:1003720039020E945C038111EACF0E94970342E98D
:1003820051E060E081E00E9418032FEF85EA9EE0D1
:0E039200215080409040E1F700C00000EACF0B
:1003A00095B19F70282F207F922B95B995B19160C0
:1003B00095B995B1926095B935E03A95F1F700009D
:1003C00095B19D7F95B9EFE1F3E03197F1F700C06A
:1003D000000025B1F0E18F9FC0011124922F9F7082
:1003E000892B85B985B1816085B985B1826085B970
:1003F00035E03A95F1F7000085B18D7F85B98FE33F
:0C0400009FE10197F1F700C00000089593
:10040C0095B19F70282F207F922B95B995B19E7F27
:10041C0095B995B1926095B935E03A95F1F7000030
:10042C0095B19D7F95B9EFE1F3E03197F1F700C0FD
:10043C00000025B1F0E18F9FC0011124922F9F7015
:10044C00892B85B985B1826085B935E03A95F1F78C
:10045C00000085B18D7F85B98FE39FE10197F1F79E
:06046C0000C0000008952D
:100472000E94AF03882389F00E94970348E451E069
:1004820060E081E00E9418032FEF85EA9EE0215090
:1004920080409040E1F700C000000E94B30388232F
:1004A20089F00E94970341E551E060E081E00E94FB
:1004B20018032FEF85EA9EE0215080409040E1F73B
:0604C20000C000000895D7
:1004C800E82F81E070E060E022C08FE39CE90197AB
:1004D800F1F700C000009091000121E030E0A9018F
:1004E8000E2E02C0440F551F0A94E2F7292F30E060
:1004F800242335230E2E02C0359527950A94E2F75A
:10050800822F721302C06F5F01C060E0722F6730E4
:04051800E0F2089570
:10051C00CF930E94D000C82F8823E9F00E94970344
:10052C004AE551E060E081E00E9418034FE651E09B
:10053C0060E082E00E9418038C2F0E94D0018C2F67
:10054C000E9449012FEF85EA9EE0215080409040A7
:0A055C00E1F700C00000CF91089500
:1005660084B1836F84B92FEF80E792E021508040F9
:100576009040E1F700C0000083E30E94060282E398
:100586000E94060288E20E9406028CE00E94060291
:1005960086E00E94060281E00E9406028FE39FE148
:0A05A6000197F1F700C0000008956E
:1005B000A1E21A2EAA1BBB1BFD010DC0AA1FBB1F67
:1005C000EE1FFF1FA217B307E407F50720F0A21BD9
:1005D000B30BE40BF50B661F771F881F991F1A9446
:1005E00069F760957095809590959B01AC01BD0170
:0405F000CF0108959A
:1005F400582F81E040E090E016C0EFE3FCE931972A
:10060400F1F700C0000080B121E030E0052E02C007
:10061400220F331F0A94E2F78223481302C09F5F1C
:0C06240001C090E0482F973040F308958B
:10063000CF92DF92EF926A01E62E813021F480E8BA
:100640000E94060205C0823019F480EC0E94060266
:100650008E2DB6010E943003EF90DF90CF90089569
:10066000CF92DF92EF926B01E82E07C08FEFC81A8E
:10067000D80AE80A862F0E94D001F6015E2D0E945A
:0E068000A8036111F3CFEF90DF90CF900895A3
:10068E009B01AC0160E472E48FE090E00E94D8021E
:10069E00215031093093C5002093C40088E1809326
:0A06AE00C10086E08093C2000895A9
:1006B80080910001807190E0959587959595879533
:0A06C80095958795959587950895FF
:1006D20081B1806F81B982B18F7082B981B1807F1F
:0A06E20081B982B18F6082B90895DA
:1006EC00E1E0F1E080818F798083E2E0F1E08081CC
:0606FC008F798083089550
:10070200E1E0F1E080818F7E8083E2E0F1E08081B0
:060712008F7E8083089534
:10071800EC010E94BC030E94BB03CE010E94BD03F2
:06072800CE010E94B9039E
:10072E0081E00E9406028FE39FE10197F1F700C07E
:04073E00000008951A
:0E0742009091C00095FFFCCF8093C6000895F3
:0E07500057FD03C05BBF679108956081089557
:08075E0085E00E946402089589
:0807660086E00E946402089580
:04076E000C940000E7
:040772000E94A2003F
:020776000895E4
:020778000895E2
:02077A000895E0
:10077C003132334134353642373839432A30234409
:00000001FF
