:100000000C9476000C9459020C9459020C945902E9
:100010000C9459020C9459020C9459020C945902F4
:100020000C9459020C9459020C9459020C945902E4
:100030000C9459020C9459020C9459020C945902D4
:100040000C9459020C9459020C9459020C945902C4
:100050000C9459020C9459020C9459020C945902B4
:100060000C9459020C9459020C9459020C945902A4
:100070000C9459020C9459020C9459020C94590294
:100080000C9459020C9459020C9459020C94590284
:100090000C9459020C9459020C9459020C94590274
:1000A0000C9459020C9459020C9459020C94590264
:1000B0000C9459020C9459020C9459020C94590254
:1000C0000C9459020C9459020C9459020C94590244
:1000D0000C9459020C9459020C9459020C94590234
:1000E0000C945902020002100004C00011241FBE2B
:1000F000CFEFD1E2DEBFCDBF00E00CBFE4EEF0E019
:1001000040E019C0B791A79137912791079107FD5A
:100110000EC097918791EF01F92FE82F0BBF079041
:100120000D92A217B307D9F7FE011BBE04C01D92A2
:10013000A217B307E1F7EB3EF40721F70E94940101
:080140000C943D02F894FFCF7E
:1001480056656E44454C4554004661697320746F8A
:0C0158006E2063686F697800426F6100E0
:100164006F927F929F92AF92CF92DF92EF92FF9223
:100174000F931F93CF93DF93CDB7DEB760970FB67E
:10018400F894DEBF0FBECDBF80E1E0E0F2E0DE0117
:10019400119601900D928A95E1F7A12C42C082B18B
:1001A400EA2CF12C97012C5F3F4F01E010E038015D
:1001B40002C0660C771C2A95E2F7962C962D909532
:1001C400892382B910E026C080B1C12ED12C90E0E1
:1001D400012E02C0959587950A94E2F780FD19C017
:1001E40064E06A0D812F0E94E301882391F082B1BB
:1001F400982A92B8CC0CDD1CCC0CDD1C81E090E07C
:100204008C0F9D1FC80ED91EF601EE0DFF1D8081B7
:100214000DC01F5F1430C0F282B1082F062902B945
:10022400A39493E09A1508F0BACF80E060960FB6D5
:10023400F894DEBF0FBECDBFDF91CF911F910F9118
:10024400FF90EF90DF90CF90AF909F907F906F9052
:0202540008950B
:1002560095B19F70282F207F922B95B995B191600B
:1002660095B995B1926095B935E03A95F1F70000E8
:1002760095B19D7F95B9EFE1F3E03197F1F700C0B5
:10028600000025B1F0E18F9FC0011124922F9F70CD
:10029600892B85B985B1816085B985B1826085B9BB
:1002A60035E03A95F1F7000085B18D7F85B98FE38A
:0C02B6009FE10197F1F700C000000895DF
:1002C20095B19F70282F207F922B95B995B19E7F73
:1002D20095B995B1926095B935E03A95F1F700007C
:1002E20095B19D7F95B9EFE1F3E03197F1F700C049
:1002F200000025B1F0E18F9FC0011124922F9F7061
:10030200892B85B985B1826085B935E03A95F1F7D7
:10031200000085B18D7F85B98FE39FE10197F1F7E9
:0603220000C00000089578
:100328000E94BE0148E451E060E081E00E940102C1
:1003380041E551E060E082E00E9401020E94300243
:100348000E94B200C82F8823D9F30E94480240E6D1
:1003580051E060E081E00E9401028C2F0E942B0195
:100368002FEF85EA9EE0215080409040E1F700C0E1
:040378000000E6CFCC
:10037C0084B1836F84B92FEF80E792E021508040E5
:10038C009040E1F700C0000083E30E94610182E32A
:10039C000E94610188E20E9461018CE00E9461016F
:1003AC0086E00E94610181E00E9461018FE39FE180
:0A03BC000197F1F700C0000008955A
:1003C600582F81E040E090E016C0EFE3FCE931975A
:1003D600F1F700C0000080B121E030E0052E02C038
:1003E600220F331F0A94E2F78223481302C09F5F4D
:0C03F60001C090E0482F973040F30895BC
:10040200CF92DF92EF926A01E62E813021F480E8EA
:100412000E94610105C0823019F480EC0E946101E2
:100422008E2DB6010E941902EF90DF90CF900895B1
:10043200CF92DF92EF926B01E82E07C08FEFC81ABE
:10044200D80AE80A862F0E942B01F6015E2D0E942F
:0E04520052026111F3CFEF90DF90CF9008952A
:1004600081B1806F81B982B18F7082B981B1807F93
:0A04700081B982B18F6082B908954E
:10047A00EC010E945E020E945D02CE010E945F02B0
:06048A00CE010E945B029E
:1004900081E00E9461018FE39FE10197F1F700C0C5
:0404A00000000895BB
:0E04A40057FD03C05BBF679108956081089506
:0404B2000C940000A6
:0404B6000E94A200FE
:0204BA000895A3
:0204BC000895A1
:0204BE0008959F
:1004C0003132334134353642373839432A302344C8
:00000001FF
