:100000000C9476000C9407010C9407010C940701E2
:100010000C9407010C9407010C9407010C94070140
:100020000C9407010C9407010C9407010C94070130
:100030000C9407010C9407010C9407010C94070120
:100040000C9407010C9407010C9407010C94070110
:100050000C94C6000C9407010C9407010C94070142
:100060000C9407010C9407010C9407010C940701F0
:100070000C9407010C9407010C9407010C940701E0
:100080000C9407010C9407010C9407010C940701D0
:100090000C9407010C9407010C9407010C940701C0
:1000A0000C9407010C9407010C9407010C940701B0
:1000B0000C9407010C9407010C9407010C940701A0
:1000C0000C9407010C9407010C9407010C94070190
:1000D0000C9407010C9407010C9407010C94070180
:1000E0000C940701020002020002220011241FBE2C
:1000F000CFEFD1E2DEBFCDBF00E00CBFE4EEF0E019
:1001000040E019C0B791A79137912791079107FD5A
:100110000EC097918791EF01F92FE82F0BBF079041
:100120000D92A217B307D9F7FE011BBE04C01D92A2
:10013000A217B307E1F7EB3EF40721F70E94A400F2
:080140000C94EE00F894FFCFCF
:100148000E94E20080E284B978940E94F900C82FE6
:100158000E940001C23351F0C33371F0C133A9F7D3
:100168000E940B0181E40E940001EFCF0E940C0164
:1001780082E40E940001E9CF0E940D0183E40E94FD
:040188000001E3CFC0
:10018C001F920F920FB60F9211248F939F93809111
:10019C00000290910102909385008093840095B1A8
:1001AC0080E2892785B981E086BB9F918F910F9062
:0801BC000FBE0F901F90189573
:1001C4001092C5008FEC8093C40088E18093C10035
:0801D40086E08093C20008954B
:1001DC00EC010E940F010E940E01CE010E94100141
:0601EC00CE010E94090192
:0E01F2008091C0008823E4F78091C600089534
:0E0200009091C00095FFFCCF8093C60008953A
:04020E000C9400004C
:040212000E94A200A4
:02021600089549
:02021800089547
:02021A00089545
:02021C00089543
:02021E00089541
:0202200008953F
:02022200EACB25
:00000001FF
