:100000000C9476000C9432010C9432010C94320161
:100010000C9432010C9432010C9432010C94320194
:100020000C9432010C9432010C9432010C94320184
:100030000C9432010C9432010C9432010C94320174
:100040000C9432010C9432010C9432010C94320164
:100050000C94C6000C9432010C9432010C943201C1
:100060000C9432010C9432010C9432010C94320144
:100070000C9432010C9432010C9432010C94320134
:100080000C9432010C9432010C9432010C94320124
:100090000C9432010C9432010C9432010C94320114
:1000A0000C9432010C9432010C9432010C94320104
:1000B0000C9432010C9432010C9432010C943201F4
:1000C0000C9432010C9432010C9432010C943201E4
:1000D0000C9432010C9432010C9432010C943201D4
:1000E0000C943201020002020002720011241FBEB1
:1000F000CFEFD1E2DEBFCDBF00E00CBFE4EEF0E019
:1001000040E019C0B791A79137912791079107FD5A
:100110000EC097918791EF01F92FE82F0BBF079041
:100120000D92A217B307D9F7FE011BBE04C01D92A2
:10013000A217B307E1F7EB3EF40721F70E94A400F2
:080140000C941001F894FFCFAC
:100148000E94040180E284B978940E942401C82F97
:100158000E942B01C23351F0C33371F0C133A9F7A8
:100168000E94E00081E40E942B01EFCF0E94F20080
:1001780082E40E942B01E9CF0E941B0183E40E94C4
:040188002B01E3CF95
:10018C001F920F920FB60F9211248F939F938AEEAA
:10019C009BEC909385008093840095B180E2892735
:1001AC0085B981E086BB9F918F910F900FBE0F9008
:0401BC001F901895E3
:1001C0001092800081E0809381002AEE3BEC309316
:1001D00001022093000230938500209384008093D5
:0401E0006F0008950F
:1001E4001092800081E0809381002FE530EF3093FE
:1001F40001022093000230938500209384008093B1
:040204006F000895EA
:100208001092C5008FEC8093C40088E18093C100F0
:0802180086E08093C200089506
:10022000EC010E9437010E943601CE010E94380184
:06023000CE010E94340122
:10023600E1E8F0E08081887F808385B18F7D85B994
:02024600089519
:0E0248008091C0008823E4F78091C6000895DD
:0E0256009091C00095FFFCCF8093C6000895E4
:040264000C940000F6
:040268000E94A2004E
:02026C000895F3
:02026E000895F1
:020270000895EF
:02027200EACBD5
:00000001FF
