:100000000C9476000C94F8030C94F8030C94F80309
:100010000C94F8030C94F8030C94F8030C94F80374
:100020000C94F8030C94F8030C94F8030C94F80364
:100030000C94F8030C94F8030C94F8030C94F80354
:100040000C94F8030C94F8030C94F8030C94F80344
:100050000C94F8030C94F8030C94F8030C94F80334
:100060000C94F8030C94F8030C94F8030C94F80324
:100070000C94F8030C94F8030C94F8030C94F80314
:100080000C94F8030C94F8030C94F8030C94F80304
:100090000C94F8030C94F8030C94F8030C94F803F4
:1000A0000C94F8030C94F8030C94F8030C94F803E4
:1000B0000C94F8030C94F8030C94F8030C94F803D4
:1000C0000C94F8030C94F8030C94F8030C94F803C4
:1000D0000C94F8030C94F8030C94F8030C94F803B4
:1000E0000C94F803020002100007FE0011241FBE4A
:1000F000CFEFD1E2DEBFCDBF00E00CBFE4EEF0E019
:1001000040E019C0B791A79137912791079107FD5A
:100110000EC097918791EF01F92FE82F0BBF079041
:100120000D92A217B307D9F7FE011BBE04C01D92A2
:10013000A217B307E1F7EB3EF40721F70E944A014B
:080140000C94C503F894FFCFF5
:10014800427574746F6E2035306300427574746F35
:100158006E2031520053656C6563696F6E65206F60
:100168002050726F6475746F3A004E756D65726FCA
:100178003A200056656E44454C4554004469676909
:100188007465206F2050726F6475746F00506F72C1
:0A0198007461204162657274610019
:1001A2006F927F929F92AF92CF92DF92EF92FF92E5
:1001B2000F931F93CF93DF93CDB7DEB760970FB640
:1001C200F894DEBF0FBECDBF80E1E0E0F2E0DE01D9
:1001D200119601900D928A95E1F7A12C42C082B14D
:1001E200EA2CF12C97012C5F3F4F01E010E038011F
:1001F20002C0660C771C2A95E2F7962C962D9095F4
:10020200892382B910E026C080B1C12ED12C90E0A2
:10021200012E02C0959587950A94E2F780FD19C0D8
:1002220064E06A0D812F0E940A03882391F082B153
:10023200982A92B8CC0CDD1CCC0CDD1C81E090E03D
:100242008C0F9D1FC80ED91EF601EE0DFF1D808179
:100252000DC01F5F1430C0F282B1082F062902B907
:10026200A39493E09A1508F0BACF80E060960FB697
:10027200F894DEBF0FBECDBFDF91CF911F910F91DA
:10028200FF90EF90DF90CF90AF909F907F906F9014
:020292000895CD
:10029400CF93DF93CDB7DEB769970FB6F894DEBF7F
:1002A4000FBECDBF0E94C3020E94A20360E875E2A4
:1002B40080E090E00E946D030E94AF030E94BA03A5
:1002C4000E9457030E94D0034BE751E060E081E0B5
:1002D4000E94280344E851E060E082E00E94280381
:1002E4000E94DA030DC00E9468028E010F5F1F4F47
:1002F400C8010E943602A80160E881E00E94280338
:100304000E949503882379F30AC00E9496020E94F2
:10031400D00345E951E060E081E00E9428030E9497
:0803240095038111F2CFDCCF3B
:10032C000F931F93CF93DF9320ED280F223088F08B
:10033C0000E3982F26C00E94D100982F2FEF30E7B2
:10034C0082E0215030408040E1F700C00000E2968E
:10035C0003C0182FC0E0D0E0292F911104C0C43C79
:10036C0039E0D30740F3C43C89E0D80728F02111C9
:10037C0003C0912F00E305C0C53CD94010F42111F6
:0E038C00012F802FDF91CF911F910F910895C7
:10039A0095B19F70282F207F922B95B995B19160C6
:1003AA0095B995B1926095B935E03A95F1F70000A3
:1003BA0095B19D7F95B9EFE1F3E03197F1F700C070
:1003CA00000025B1F0E18F9FC0011124922F9F7088
:1003DA00892B85B985B1816085B985B1826085B976
:1003EA0035E03A95F1F7000085B18D7F85B98FE345
:0C03FA009FE10197F1F700C0000008959A
:1004060095B19F70282F207F922B95B995B19E7F2D
:1004160095B995B1926095B935E03A95F1F7000036
:1004260095B19D7F95B9EFE1F3E03197F1F700C003
:10043600000025B1F0E18F9FC0011124922F9F701B
:10044600892B85B985B1826085B935E03A95F1F792
:10045600000085B18D7F85B98FE39FE10197F1F7A4
:0604660000C00000089533
:10046C00EF92FF920F931F93CF93DF937C010E9427
:10047C00E303F70180830E94E303F70181839081FA
:10048C009134C9F48035B9F40E94E303F7018283F7
:10049C00C0E0D0E00AC08E010D5F1F4F0E0D1F1D76
:1004AC000E94E303F80180832196F701828190E09A
:1004BC00C817D90784F3DF91CF911F910F91FF904B
:0404CC00EF90089510
:1004D000CF93DF930E94D100C82F882321F10E947F
:1004E000D0034DE551E060E081E00E94280342E73F
:1004F00051E060E082E00E9428038C2F0E94960168
:10050000D82FC92F0E9482038D2F0E94CD018C2FDE
:100510000E94CD012FEF83ED90E321508040904069
:0C052000E1F700C00000DF91CF910895CA
:10052C00E0E9F0E080818062808320E030E01FC051
:10053C004FEF84E39CE0415080409040E1F700C0D5
:10054C000000E0E9F0E080818F7D80838EB18F7EAA
:10055C008EB94FEF84E39CE0415080409040E1F72E
:10056C0000C000008081806280832F5F3F4F2A3063
:0A057C003105F4F20E94DA0308953D
:1005860084B1836F84B92FEF80E792E021508040D9
:100596009040E1F700C0000083E30E94030282E37B
:1005A6000E94030288E20E9403028CE00E9403027A
:1005B60086E00E94030281E00E9403028FE39FE12E
:0A05C6000197F1F700C0000008954E
:1005D000A1E21A2EAA1BBB1BFD010DC0AA1FBB1F47
:1005E000EE1FFF1FA217B307E407F50720F0A21BB9
:1005F000B30BE40BF50B661F771F881F991F1A9426
:1006000069F760957095809590959B01AC01BD014F
:04061000CF01089579
:10061400582F81E040E090E016C0EFE3FCE9319709
:10062400F1F700C0000080B121E030E0052E02C0E7
:10063400220F331F0A94E2F78223481302C09F5FFC
:0C06440001C090E0482F973040F308956B
:10065000CF92DF92EF926A01E62E813021F480E89A
:100660000E94030205C0823019F480EC0E9403024C
:100670008E2DB6010E944003EF90DF90CF90089539
:10068000CF92DF92EF926B01E82E07C08FEFC81A6E
:10069000D80AE80A862F0E94CD01F6015E2D0E943D
:0E06A000F1036111F3CFEF90DF90CF9008953A
:1006AE008DB180618DB9E0E9F0E080818162808357
:1006BE00E1E9F0E080818A60808380E890E09093A9
:0C06CE009B0080939A000E94DA030895BC
:1006DA009B01AC0160E472E48FE090E00E94E802C2
:1006EA00215031093093C5002093C40088E18093DA
:0A06FA00C10086E08093C20008955D
:10070400CF93DF93D82FC92F86E50E94EA0380E5B3
:100714000E94EA038D2F0E94EA038C2F0E94EA03B1
:06072400DF91CF91089562
:10072A0080910001807190E09595879595958795C0
:0A073A00959587959595879508958C
:1007440081B1806F81B982B18F7082B981B1807FAC
:0A07540081B982B18F6082B9089567
:10075E00E1E0F1E080818F798083E2E0F1E0808159
:06076E008F7980830895DD
:10077400E1E0F1E080818F7E8083E2E0F1E080813E
:060784008F7E80830895C2
:10078A00EC010E94FD030E94FC03CE010E94FE03BD
:06079A00CE010E94FA03EB
:1007A00081E00E9403028FE39FE10197F1F700C00F
:0407B00000000895A8
:1007B400E0E9F0E080818F7D80838EB18F7E8EB9F9
:0207C400089596
:0E07C6008091C0008823E4F78091C60008955A
:0E07D4009091C00095FFFCCF8093C600089561
:0E07E20057FD03C05BBF6791089560810895C5
:0407F0000C94000065
:0407F4000E94A200BD
:0207F800089562
:0207FA00089560
:0207FC0008955E
:1007FE003132334134353642373839432A30234487
:00000001FF
