:100000000C9472000C94E0000C94E0000C94E0005E
:100010000C94E0000C94E0000C94E0000C94E000E0
:100020000C94E0000C94E0000C94E0000C94E000D0
:100030000C94E0000C94E0000C94E0000C94E000C0
:100040000C94E0000C94E0000C94E0000C94E000B0
:100050000C94A0000C94E0000C94E0000C94E000E0
:100060000C94E0000C94E0000C94E0000C94E00090
:100070000C94E0000C94E0000C94E0000C94E00080
:100080000C94E0000C94E0000C94E0000C94E00070
:100090000C94E0000C94E0000C94E0000C94E00060
:1000A0000C94E0000C94E0000C94E0000C94E00050
:1000B0000C94E0000C94E0000C94E0000C94E00040
:1000C0000C94E0000C94E0000C94E0000C94E00030
:1000D0000C94E0000C94E0000C94E0000C94E00020
:1000E0000C94E00011241FBECFEFD1E2DEBFCDBFE4
:1000F00000E00CBFE4EEF0E040E019C0B791A7913A
:1001000037912791079107FD0EC097918791EF01D5
:10011000F92FE82F0BBF07900D92A217B307D9F75D
:10012000FE011BBE04C01D92A217B307E1F7E43E17
:10013000F40721F70E94D1000C94C600F894FFCF79
:100140001F920F920FB60F9211248F939F938AEEF6
:100150009BEC909385008093840095B180E2892781
:1001600085B981E086BB9F918F910F900FBE0F9054
:040170001F9018952F
:100174001092C5008FEC8093C40088E18093C10085
:0801840086E08093C20008959B
:10018C00EC010E94E5000E94E400CE010E94E60012
:06019C00CE010E94E2000A
:1001A2000E94BA0080E284B978940E94D900FDCFFF
:0E01B2008091C0008823E4F78091C600089574
:0401C0000C9400009B
:0401C4000E949E00F7
:0201C800089598
:0201CA00089596
:0201CC00089594
:00000001FF
