:100000000C9472000C946F010C946F010C946F01AE
:100010000C946F010C946F010C946F010C946F01A0
:100020000C946F010C946F010C946F010C946F0190
:100030000C946F010C946F010C946F010C946F0180
:100040000C946F010C946F010C946F010C946F0170
:100050000C94EC000C946F010C946F010C946F01E4
:100060000C946F010C946F010C946F010C946F0150
:100070000C946F010C946F010C946F010C946F0140
:100080000C946F010C946F010C946F010C946F0130
:100090000C946F010C946F010C946F010C946F0120
:1000A0000C946F010C946F010C946F010C946F0110
:1000B0000C946F010C946F010C946F010C946F0100
:1000C0000C946F010C946F010C946F010C946F01F0
:1000D0000C946F010C946F010C946F010C946F01E0
:1000E0000C946F0111241FBECFEFD1E2DEBFCDBF54
:1000F00000E00CBFE4EEF0E040E019C0B791A7913A
:1001000037912791079107FD0EC097918791EF01D5
:10011000F92FE82F0BBF07900D92A217B307D9F75D
:10012000FE011BBE04C01D92A217B307E1F7E43E17
:10013000F40721F70E9469010C945601F894FFCF4F
:1001400095B1916095B995B19F7095B995B1282FEA
:10015000207F922B95B995B1926095B995B19D7F0D
:1001600095B995B19F7095B925B130E1839FC001D4
:100170001124822B85B985B1826085B985B18D7FC7
:0C01800085B981E090E00E9433010895F1
:10018C0095B19E7F95B995B19F7095B995B1282F72
:10019C00207F922B95B995B1926095B995B19D7FC1
:1001AC0095B995B19F7095B925B130E1839FC00188
:1001BC001124822B85B985B1826085B985B18D7F7B
:0C01CC0085B981E090E00E9433010895A5
:1001D8001F920F920FB60F9211248F939F938AEE5E
:1001E8009BEC909385008093840095B180E28927E9
:1001F80085B981E086BB9F918F910F900FBE0F90BC
:040208001F90189596
:10020C00A0E0B0E0880F991FAA1FBB1F8F3F91057C
:10021C0019F010F08FEF90E014BC92E095BD819531
:0E022C0086BDA89BFECF81E085BB15BC089562
:10023A0084B1836F84B98FE090E00E94330182E039
:10024A000E94C60088E20E94C6008CE00E94C60096
:0C025A0086E00E94C6000E946101089529
:100266009C01369527953695279536952795A5ECC5
:10027600B0E20E944701929582958F7089279F7000
:0802860089270E94060108957A
:10028E00A29FB001B39FC001A39F700D811D1124C9
:0E029E00911DB29F700D811D1124911D0895B8
:1002AC00EC010E9474010E947301CE010E94750141
:0602BC00CE010E94710159
:1002C20081E00E94C60082E090E00E94330108951E
:0C02D2000E941D0181E60E94A000FFCFE9
:0402DE000C9400007C
:0402E2000E949E00D8
:0202E600089579
:0202E800089577
:0202EA00089575
:00000001FF
