:100000000C9472000C9422010C9422010C94220195
:100010000C9422010C9422010C9422010C942201D4
:100020000C9422010C9422010C9422010C942201C4
:100030000C9422010C9422010C9422010C942201B4
:100040000C9422010C9422010C9422010C942201A4
:100050000C9422010C9422010C9422010C94220194
:100060000C9422010C9422010C9422010C94220184
:100070000C9422010C9422010C9422010C94220174
:100080000C9422010C9422010C9422010C94220164
:100090000C9422010C9422010C9422010C94220154
:1000A0000C9422010C9422010C9422010C94220144
:1000B0000C9422010C9422010C9422010C94220134
:1000C0000C9422010C9422010C9422010C94220124
:1000D0000C9422010C9422010C9422010C94220114
:1000E0000C94220111241FBECFEFD1E2DEBFCDBFA1
:1000F00000E00CBFE4EEF0E040E019C0B791A7913A
:1001000037912791079107FD0EC097918791EF01D5
:10011000F92FE82F0BBF07900D92A217B307D9F75D
:10012000FE011BBE04C01D92A217B307E1F7E43E17
:10013000F40721F70E941F010C940C01F894FFCFE3
:10014000CF93C82F85B18E7F85B985B18F7085B962
:1001500085B19C2F907F892B85B985B1826085B947
:1001600081E090E00E94FF0085B18D7F85B985B167
:100170008F7085B925B130E1C39FC0011124822B56
:1001800085B985B1826085B981E090E00E94FF0069
:1001900085B18D7F85B982E090E00E94FF00CF910C
:0201A0000895C0
:1001A20084B1836F84B984EF91E00E94FF0083E001
:1001B2000E94A00085E090E00E94FF0083E00E9480
:1001C200A00081E090E00E94FF0083E00E94A00076
:1001D20081E090E00E94FF0082E00E94A00088E29D
:1001E2000E94A0008CE00E94A00086E00E94A00075
:0C01F2000E94170180E80E94A000089500
:1001FE0020E030E006C045E04A95F1F700002F5FA1
:0A020E003F4F28173907B8F3089591
:10021800EC010E9427010E942601CE010E942801BC
:06022800CE010E9424013A
:10022E0081E00E94A00082E090E00E94FF0008950D
:06023E000E94D100FFCF79
:040244000C94000016
:040248000E949E0072
:02024C00089513
:02024E00089511
:0202500008950F
:00000001FF
