:100000000C9476000C9472020C9472020C9472029E
:100010000C9472020C9472020C9472020C94720290
:100020000C9472020C9472020C9472020C94720280
:100030000C9472020C9472020C9472020C94720270
:100040000C9472020C9472020C9472020C94720260
:100050000C9472020C9472020C9472020C94720250
:100060000C9472020C9472020C9472020C94720240
:100070000C9472020C9472020C9472020C94720230
:100080000C9472020C9472020C9472020C94720220
:100090000C9472020C9472020C9472020C94720210
:1000A0000C9472020C9472020C9472020C94720200
:1000B0000C9472020C9472020C9472020C947202F0
:1000C0000C9472020C9472020C9472020C947202E0
:1000D0000C9472020C9472020C9472020C947202D0
:1000E0000C947202020002100004F20011241FBEE0
:1000F000CFEFD1E2DEBFCDBF00E00CBFE4EEF0E019
:1001000040E019C0B791A79137912791079107FD5A
:100110000EC097918791EF01F92FE82F0BBF079041
:100120000D92A217B307D9F7FE011BBE04C01D92A2
:10013000A217B307E1F7EB3EF40721F70E94950100
:080140000C944F02F894FFCF6C
:1001480056656E44454C4554004661697320746F8A
:0D0158006E2063686F697800426F612000BF
:100166006F927F929F92AF92CF92DF92EF92FF9221
:100176000F931F93CF93DF93CDB7DEB760970FB67C
:10018600F894DEBF0FBECDBF80E1E0E0F2E0DE0115
:10019600119601900D928A95E1F7A12C42C082B189
:1001A600EA2CF12C97012C5F3F4F01E010E038015B
:1001B60002C0660C771C2A95E2F7962C962D909530
:1001C600892382B910E026C080B1C12ED12C90E0DF
:1001D600012E02C0959587950A94E2F780FD19C015
:1001E60064E06A0D812F0E94E901882391F082B1B3
:1001F600982A92B8CC0CDD1CCC0CDD1C81E090E07A
:100206008C0F9D1FC80ED91EF601EE0DFF1D8081B5
:100216000DC01F5F1430C0F282B1082F062902B943
:10022600A39493E09A1508F0BACF80E060960FB6D3
:10023600F894DEBF0FBECDBFDF91CF911F910F9116
:10024600FF90EF90DF90CF90AF909F907F906F9050
:02025600089509
:1002580095B19F70282F207F922B95B995B1916009
:1002680095B995B1926095B935E03A95F1F70000E6
:1002780095B19D7F95B9EFE1F3E03197F1F700C0B3
:10028800000025B1F0E18F9FC0011124922F9F70CB
:10029800892B85B985B1816085B985B1826085B9B9
:1002A80035E03A95F1F7000085B18D7F85B98FE388
:0C02B8009FE10197F1F700C000000895DD
:1002C40095B19F70282F207F922B95B995B19E7F71
:1002D40095B995B1926095B935E03A95F1F700007A
:1002E40095B19D7F95B9EFE1F3E03197F1F700C047
:1002F400000025B1F0E18F9FC0011124922F9F705F
:10030400892B85B985B1826085B935E03A95F1F7D5
:10031400000085B18D7F85B98FE39FE10197F1F7E7
:0603240000C00000089576
:10032A000E94C40148E451E060E081E00E940702B3
:10033A0041E551E060E082E00E9407020E94360235
:10034A000E9443020E94B300C82F8823D9F30E9457
:10035A005A0240E651E060E081E00E9407028C2FD9
:10036A000E942C018C2F0E9464022FEF85EA9EE0E6
:0E037A00215080409040E1F700C00000E3CF2A
:1003880084B1836F84B92FEF80E792E021508040D9
:100398009040E1F700C0000083E30E94620182E31D
:1003A8000E94620188E20E9462018CE00E94620160
:1003B80086E00E94620181E00E9462018FE39FE172
:0A03C8000197F1F700C0000008954E
:1003D200582F81E040E090E016C0EFE3FCE931974E
:1003E200F1F700C0000080B121E030E0052E02C02C
:1003F200220F331F0A94E2F78223481302C09F5F41
:0C04020001C090E0482F973040F30895AF
:10040E00CF92DF92EF926A01E62E813021F480E8DE
:10041E000E94620105C0823019F480EC0E946201D4
:10042E008E2DB6010E941F02EF90DF90CF9008959F
:10043E00CF92DF92EF926B01E82E07C08FEFC81AB2
:10044E00D80AE80A862F0E942C01F6015E2D0E9422
:0E045E006B026111F3CFEF90DF90CF90089505
:10046C0081B1806F81B982B18F7082B981B1807F87
:0A047C0081B982B18F6082B9089542
:100486001092C5008FEC8093C40088E18093C10070
:0804960086E08093C200089586
:10049E00EC010E9477020E947602CE010E94780241
:0604AE00CE010E94740261
:1004B40081E00E9462018FE39FE10197F1F700C0A0
:0404C4000000089597
:0E04C8009091C00095FFFCCF8093C600089570
:0E04D60057FD03C05BBF6791089560810895D4
:0404E4000C94000074
:0404E8000E94A200CC
:0204EC00089571
:0204EE0008956F
:0204F00008956D
:1004F2003132334134353642373839432A30234496
:00000001FF
