:100000000C9476000C9444030C9444030C94440325
:100010000C9444030C9444030C9444030C94440344
:100020000C9444030C9444030C9444030C94440334
:100030000C9444030C9444030C9444030C94440324
:100040000C9444030C9444030C9444030C94440314
:100050000C9444030C9444030C9444030C94440304
:100060000C9444030C9444030C9444030C944403F4
:100070000C9444030C9444030C9444030C944403E4
:100080000C9444030C9444030C9444030C944403D4
:100090000C9444030C9444030C9444030C944403C4
:1000A0000C9444030C9444030C9444030C944403B4
:1000B0000C9444030C9444030C9444030C944403A4
:1000C0000C9444030C9444030C9444030C94440394
:1000D0000C9444030C9444030C9444030C94440384
:1000E0000C944403020002100006960011241FBE67
:1000F000CFEFD1E2DEBFCDBF00E00CBFE4EEF0E019
:1001000040E019C0B791A79137912791079107FD5A
:100110000EC097918791EF01F92FE82F0BBF079041
:100120000D92A217B307D9F7FE011BBE04C01D92A2
:10013000A217B307E1F7EB3EF40721F70E9437015E
:080140000C941903F894FFCFA1
:1001480056656E44454C4554004661697320746F8A
:100158006E2063686F697800426F61200042757491
:10016800746F6E203100427574746F6E20320044D3
:040178004F4F520093
:10017C006F927F929F92AF92CF92DF92EF92FF920B
:10018C000F931F93CF93DF93CDB7DEB760970FB666
:10019C00F894DEBF0FBECDBF80E1E0E0F2E0DE01FF
:1001AC00119601900D928A95E1F7A12C42C082B173
:1001BC00EA2CF12C97012C5F3F4F01E010E0380145
:1001CC0002C0660C771C2A95E2F7962C962D90951A
:1001DC00892382B910E026C080B1C12ED12C90E0C9
:1001EC00012E02C0959587950A94E2F780FD19C0FF
:1001FC0064E06A0D812F0E948702882391F082B1FE
:10020C00982A92B8CC0CDD1CCC0CDD1C81E090E063
:10021C008C0F9D1FC80ED91EF601EE0DFF1D80819F
:10022C000DC01F5F1430C0F282B1082F062902B92D
:10023C00A39493E09A1508F0BACF80E060960FB6BD
:10024C00F894DEBF0FBECDBFDF91CF911F910F9100
:10025C00FF90EF90DF90CF90AF909F907F906F903A
:02026C000895F3
:10026E000E94400248E451E060E081E00E94A50255
:10027E0041E551E060E082E00E94A5020E94F60294
:10028E0060E875E280E090E00E94D4020E940303D1
:10029E000E940E030E94BE00C82F8823B9F00E9450
:1002AE00240340E651E060E081E00E94A5028C2F1D
:1002BE000E94AD018C2F0E942E032FEF85EA9EE047
:1002CE00215080409040E1F700C000000E943C03A6
:1002DE00882389F00E94240345E651E060E081E026
:1002EE000E94A5022FEF85EA9EE0215080409040AB
:1002FE00E1F700C000000E944003882389F00E94AD
:10030E0024034EE651E060E081E00E94A5022FEF4B
:10031E0085EA9EE0215080409040E1F700C0000049
:10032E000E94E9028111B6CF0E94240347E751E0F3
:10033E0060E081E00E94A5022FEF85EA9EE0215049
:0C034E0080409040E1F700C00000A4CF08
:10035A0095B19F70282F207F922B95B995B1916006
:10036A0095B995B1926095B935E03A95F1F70000E3
:10037A0095B19D7F95B9EFE1F3E03197F1F700C0B0
:10038A00000025B1F0E18F9FC0011124922F9F70C8
:10039A00892B85B985B1816085B985B1826085B9B6
:1003AA0035E03A95F1F7000085B18D7F85B98FE385
:0C03BA009FE10197F1F700C000000895DA
:1003C60095B19F70282F207F922B95B995B19E7F6E
:1003D60095B995B1926095B935E03A95F1F7000077
:1003E60095B19D7F95B9EFE1F3E03197F1F700C044
:1003F600000025B1F0E18F9FC0011124922F9F705C
:10040600892B85B985B1826085B935E03A95F1F7D2
:10041600000085B18D7F85B98FE39FE10197F1F7E4
:0604260000C00000089573
:10042C00E82F81E070E060E022C08FE39CE9019747
:10043C00F1F700C000009091000121E030E0A9012B
:10044C000E2E02C0440F551F0A94E2F7292F30E0FC
:10045C00242335230E2E02C0359527950A94E2F7F6
:10046C00822F721302C06F5F01C060E0722F673081
:04047C00E0F208950D
:1004800084B1836F84B92FEF80E792E021508040E0
:100490009040E1F700C0000083E30E94E30182E3A3
:1004A0000E94E30188E20E94E3018CE00E94E301E4
:1004B00086E00E94E30181E00E94E3018FE39FE177
:0A04C0000197F1F700C00000089555
:1004CA00A1E21A2EAA1BBB1BFD010DC0AA1FBB1F4E
:1004DA00EE1FFF1FA217B307E407F50720F0A21BC0
:1004EA00B30BE40BF50B661F771F881F991F1A942D
:1004FA0069F760957095809590959B01AC01BD0157
:04050A00CF01089580
:10050E00582F81E040E090E016C0EFE3FCE9319710
:10051E00F1F700C0000080B121E030E0052E02C0EE
:10052E00220F331F0A94E2F78223481302C09F5F03
:0C053E0001C090E0482F973040F3089572
:10054A00CF92DF92EF926A01E62E813021F480E8A1
:10055A000E94E30105C0823019F480EC0E94E30195
:10056A008E2DB6010E94BD02EF90DF90CF900895C4
:10057A00CF92DF92EF926B01E82E07C08FEFC81A75
:10058A00D80AE80A862F0E94AD01F6015E2D0E9464
:0E059A0035036111F3CFEF90DF90CF900895FD
:1005A8009B01AC0160E472E48FE090E00E94650278
:1005B800215031093093C5002093C40088E180930D
:0A05C800C10086E08093C200089590
:1005D20080910001807190E095958795959587951A
:0A05E20095958795959587950895E6
:1005EC0081B1806F81B982B18F7082B981B1807F06
:0A05FC0081B982B18F6082B90895C1
:10060600E1E0F1E080818F798083E2E0F1E08081B2
:060616008F798083089536
:10061C00E1E0F1E080818F7E8083E2E0F1E0808197
:06062C008F7E808308951B
:10063200EC010E9449030E944803CE010E944A0332
:06064200CE010E944603F8
:1006480081E00E94E3018FE39FE10197F1F700C089
:040658000000089501
:0E065C009091C00095FFFCCF8093C6000895DA
:0E066A0057FD03C05BBF67910895608108953E
:0806780085E00E9416020895BE
:0806800086E00E9416020895B5
:040688000C940000CE
:04068C000E94A20026
:020690000895CB
:020692000895C9
:020694000895C7
:100696003132334134353642373839432A302344F0
:00000001FF
