:100000000C9476000C9440020C9440020C94400234
:100010000C9440020C9440020C9440020C94400258
:100020000C9440020C9440020C9440020C94400248
:100030000C9440020C9440020C9440020C94400238
:100040000C9440020C9440020C9440020C94400228
:100050000C9440020C9440020C9440020C94400218
:100060000C9440020C9440020C9440020C94400208
:100070000C9440020C9440020C9440020C944002F8
:100080000C9440020C9440020C9440020C944002E8
:100090000C9440020C9440020C9440020C944002D8
:1000A0000C9440020C9440020C9440020C944002C8
:1000B0000C9440020C9440020C9440020C944002B8
:1000C0000C9440020C9440020C9440020C944002A8
:1000D0000C9440020C9440020C9440020C94400298
:1000E0000C9440020200021000048E0011241FBE76
:1000F000CFEFD1E2DEBFCDBF00E00CBFE4EEF0E019
:1001000040E019C0B791A79137912791079107FD5A
:100110000EC097918791EF01F92FE82F0BBF079041
:100120000D92A217B307D9F7FE011BBE04C01D92A2
:10013000A217B307E1F7EB3EF40721F70E94A701EE
:080140000C942402F894FFCF97
:1001480056656E44454C4554004661697320746F8A
:100158006E2063686F697800426F6100585858587C
:0201680058003D
:10016A00BF92CF92DF92EF92FF920F931F93CF939A
:10017A00DF93CDB7DEB760970FB6F894DEBF0FBE38
:10018A00CDBF80E1E0E0F2E0DE01119601900D9230
:10019A008A95E1F700E035C082B1E02EF12C970193
:1001AA002C5F3F4F41E050E06A0102C0CC0CDD1CDD
:1001BA002A95E2F7BC2C8C2982B910E01BC0802F4B
:1001CA000E94CA018823A9F082B1B094B822B2B8B9
:1001DA00812F90E0880F991F880F991F21E030E046
:1001EA002C0F3D1F820F931FFC01EE0DFF1D808116
:1001FA000BC01F5F143018F382B1C094C822C2B872
:10020A000F5F043048F280E060960FB6F894DEBFC4
:10021A000FBECDBFDF91CF911F910F91FF90EF904D
:08022A00DF90CF90BF90089512
:1002320095B19F70282F207F922B95B995B191602F
:1002420095B995B1926095B935E03A95F1F700000C
:1002520095B19D7F95B9EFE1F3E03197F1F700C0D9
:10026200000025B1F0E18F9FC0011124922F9F70F1
:10027200892B85B985B1816085B985B1826085B9DF
:1002820035E03A95F1F7000085B18D7F85B98FE3AE
:0C0292009FE10197F1F700C00000089503
:10029E0095B19F70282F207F922B95B995B19E7F97
:1002AE0095B995B1926095B935E03A95F1F70000A0
:1002BE0095B19D7F95B9EFE1F3E03197F1F700C06D
:1002CE00000025B1F0E18F9FC0011124922F9F7085
:1002DE00892B85B985B1826085B935E03A95F1F7FC
:1002EE00000085B18D7F85B98FE39FE10197F1F70E
:0602FE0000C0000008959D
:1003040084B1836F84B92FEF80E792E0215080405D
:100314009040E1F700C0000083E30E944F0182E3B4
:100324000E944F0188E20E944F018CE00E944F011D
:1003340086E00E944F0181E00E944F018FE39FE11C
:0A0344000197F1F700C000000895D2
:10034E000E94820148E451E060E081E00E94E801F1
:10035E0041E551E060E082E00E94E8010E94170250
:10036E000E94B5008823E1F30E942F0240E651E07F
:10037E0060E081E00E94E80144E651E060E082E046
:06038E000E94E801EDCF22
:10039400582F81E040E090E016C0EFE3FCE931978C
:1003A400F1F700C0000080B121E030E0052E02C06A
:1003B400220F331F0A94E2F78223481302C09F5F7F
:0C03C40001C090E0482F973040F30895EE
:1003D000CF92DF92EF926A01E62E813021F480E81D
:1003E0000E944F0105C0823019F480EC0E944F0139
:1003F0008E2DB6010E940002EF90DF90CF900895FD
:10040000CF92DF92EF926B01E82E07C08FEFC81AF0
:10041000D80AE80A862F0E941901F6015E2D0E9473
:0E04200039026111F3CFEF90DF90CF90089575
:10042E0081B1806F81B982B18F7082B981B1807FC5
:0A043E0081B982B18F6082B9089580
:10044800EC010E9445020E944402CE010E9446022D
:06045800CE010E944202E9
:10045E0081E00E944F018FE39FE10197F1F700C009
:04046E0000000895ED
:0E04720057FD03C05BBF679108956081089538
:040480000C940000D8
:040484000E94A20030
:020488000895D5
:02048A000895D3
:02048C000895D1
:10048E003132334134353642373839432A302344FA
:00000001FF
